:100000000C945D000C9485000C9485000C94850084
:100010000C9485000C9485000C9485000C9485004C
:100020000C9485000C9485000C9485000C9485003C
:100030000C9485000C9485000C9485000C9485002C
:100040000C94ED010C9485000C9485000C948500B3
:100050000C9485000C9485000C9485000C9485000C
:100060000C9485000C94850000000008000201003B
:100070000003040700000000000000000000000072
:10008000250028002B0000000000240027002A0083
:10009000040404040404040402020202020203032E
:1000A0000303030301020408102040800102040836
:1000B0001020010204081020320311241FBECFEFCC
:1000C000D8E0DEBFCDBF11E0A0E0B1E0E6E4F7E0AC
:1000D00002C005900D92A032B107D9F721E0A0E24D
:1000E000B1E001C01D92A338B207E1F710E0CDE501
:1000F000D0E004C02197FE010E949B03CC35D107BC
:10010000C9F70E9437020C94A1030C94000090E000
:10011000FC01EC55FF4F249180579F4FFC018491C7
:10012000882399F090E0880F991FFC01EA57FF4F50
:10013000A591B491FC01E458FF4F859194918FB73C
:10014000F894EC91E22BEC938FBF089590E0FC01C2
:10015000E859FF4F2491FC01EC55FF4F3491FC010D
:10016000E057FF4FE491EE23C9F0222339F023300A
:1001700001F1A8F4213019F1223029F1F0E0EE0F5D
:10018000FF1FE458FF4FA591B4918FB7F894EC91FD
:10019000611126C030953E233C938FBF08952730D0
:1001A000A9F02830C9F0243049F7809180008F7D74
:1001B00003C0809180008F7780938000DFCF84B56B
:1001C0008F7784BDDBCF84B58F7DFBCF8091B0006E
:1001D0008F778093B000D2CF8091B0008F7DF9CF20
:1001E0003E2BDACF3FB7F8948091270190912801F8
:1001F000A0912901B0912A0126B5A89B05C02F3FE7
:1002000019F00196A11DB11D3FBFBA2FA92F982F3C
:100210008827BC01CD01620F711D811D911D42E037
:10022000660F771F881F991F4A95D1F708958F92FF
:100230009F92AF92BF92CF92DF92EF92FF920E9475
:10024000F2004B015C0188EEC82E83E0D82EE12C31
:10025000F12C0E94F200681979098A099B09683E0D
:10026000734081059105A8F321E0C21AD108E10885
:10027000F10888EE880E83E0981EA11CB11CC11401
:10028000D104E104F10429F7FF90EF90DF90CF90C3
:10029000BF90AF909F908F900895CF92DF92EF9292
:1002A000FF920F931F93CF93DF9300D0CDB7DEB7AC
:1002B00069834A83880F991F0091810110918201FF
:1002C000000F111FEBE2F1E09F012B52314020178C
:1002D000310714F41192F8CF2981FC01E55DFE4F3E
:1002E00021838A81808360E080917F010E94A60043
:1002F0001016110604F501501109F801E55DFE4FD5
:10030000E080D0907D01C0907B0188E0F82E6E2DBA
:10031000661F6627661F8C2D0E94A600EE0C61E00A
:100320008D2D0E94A60060E08D2D0E94A600FA94FB
:10033000F110EDCFDDCF61E080917F010F900F9044
:10034000DF91CF911F910F91FF90EF90DF90CF90B1
:100350000C94A600EF92FF921F93CF93DF9397FD2B
:100360001DC0209181013091820182179307B4F45E
:10037000EC0123E0880F991F2A95E1F79C01255C89
:100380003E4F790111E0F70111927F0140E0612FAA
:10039000CE010E944D011F5F1930A9F7DF91CF9167
:1003A0001F91FF90EF90089520918101309182017B
:1003B000821793078CF46830710571F0FC0123E01B
:1003C000EE0FFF1F2A95E1F7E55DFE4FE60FF71FE1
:1003D000408B6F5F0C944D0108951F920F920FB6E2
:1003E0000F9211242F933F938F939F93AF93BF93BB
:1003F0008091230190912401A0912501B0912601C3
:100400003091220123E0230F2D3758F50196A11DCD
:10041000B11D209322018093230190932401A09386
:100420002501B09326018091270190912801A09188
:100430002901B0912A010196A11DB11D80932701C8
:1004400090932801A0932901B0932A01BF91AF9105
:100450009F918F913F912F910F900FBE0F901F9002
:10046000189526E8230F0296A11DB11DD2CFCF9378
:10047000DF93CDB7DEB7A0970FB6F894DEBF0FBEFF
:10048000CDBF789484B5826084BD84B5816084BD1D
:1004900085B5826085BD85B5816085BD80916E0022
:1004A000816080936E001092810080918100826053
:1004B0008093810080918100816080938100809190
:1004C00080008160809380008091B100846080937F
:1004D000B1008091B00081608093B00080917A007B
:1004E000846080937A0080917A00826080937A00A1
:1004F00080917A00816080937A0080917A00806890
:1005000080937A001092C100109221011092200174
:100510000091200110912101043011050CF475C0E7
:1005200080E0682E80E0782E88E0E0E0F1E0DE01F7
:10053000599601900D928A95E1F788E0E8E0F1E0A4
:10054000DE01519601900D928A95E1F788E0E0E195
:10055000F1E0DE01199601900D928A95E1F788E0AD
:10056000E8E1F1E0DE01119601900D928A95E1F744
:100570004E0189E1880E911C5E0191E1A90EB11C2A
:100580006E01E9E0CE0ED11CCE0101967C0110E097
:1005900000E0F40141914F01B80183E090E00E9436
:1005A000D401F50141915F01B80182E090E00E9421
:1005B000D401F60141916F01B80181E090E00E9401
:1005C000D401F70141917F01B80190E080E00E94E1
:1005D000D4010F5F1F4F08301105D9F60E94170193
:1005E000109221011092200100912001109121010F
:1005F0000430110574F5C8010E94AA010F5F1F4F56
:100600001093210100932001EFCF17FD18C08091B6
:10061000810190918201081719072CF441E06CE0E8
:10062000C8010E944D0180918101909182010817BB
:1006300019072CF448E06AE0C8010E944D01C80186
:100640000E94AA010F5F1F4F109321010093200108
:100650005FCF0E9417016114710409F465CF0E94F5
:10066000000062CFCF93DF93CCE0D0E0D0937C0149
:10067000C0937B018BE090E090937E0180937D019D
:100680008AE090E09093800180937F0184E090E085
:1006900090938201809381018CE00E948700809179
:1006A0007D010E94870080917F010E94870061E0A8
:1006B00080917F010E94A600D0937C01C0937B01B2
:1006C000EBE3F1E08BE791E011928E179F07E1F7E2
:1006D000D0E0C0E08091810190918201C817D907D4
:1006E0003CF540E06FE0CE010E944D018091810118
:1006F00090918201C817D9072CF447E06BE0CE0136
:100700000E944D0140E069E0CE010E944D01CE0102
:100710000E94AA018091810190918201C817D90796
:100720002CF440E06CE0CE010E944D012196D2CF26
:10073000DF91CF910895EE0FFF1F0590F491E02D0A
:060740000994F894FFCFBC
:100746000505F59795F505053C203C203C007E0007
:100756007A0A7A427A003E020008142241007F009B
:00000001FF
