:100000000C9462000C948A000C948A000C948A0070
:100010000C948A000C948A000C948A000C948A0038
:100020000C948A000C948A000C948A000C948A0028
:100030000C948A000C948A000C948A000C948A0018
:100040000C9476030C948A000C94E6030C94C00381
:100050000C948A000C948A000C948A000C948A00F8
:100060000C948A000C948A000000000023002600F3
:10007000290000000000240027002A0000000000E2
:10008000250028002B0004040404040404040202D4
:100090000202020203030303030301020408102007
:1000A0004080010204081020010204081020000012
:1000B0000008000201000003040700000000000027
:1000C0000000180411241FBECFEFD8E0DEBFCDBF63
:1000D00011E0A0E0B1E0EAEBFCE002C005900D9277
:1000E000A831B107D9F722E0A8E1B1E001C01D9223
:1000F000A831B207E1F710E0C2E6D0E004C02197D2
:10010000FE010E945506C136D107C9F70E94C604F8
:100110000C945B060C940000833081F028F481304D
:1001200099F08230A9F008958730A9F08830C9F09D
:100130008430B1F4809180008F7D03C08091800075
:100140008F7780938000089584B58F7784BD08955C
:1001500084B58F7DFBCF8091B0008F778093B00006
:1001600008958091B0008F7DF9CF1F93CF93DF93D7
:10017000282F30E0F901E255FF4F8491F901E6564E
:10018000FF4FD491F901EA57FF4FC491CC23A9F056
:10019000162F81110E948C00EC2FF0E0EE0FFF1F54
:1001A000E458FF4FA591B4918FB7F894EC911111D9
:1001B00008C0D095DE23DC938FBFDF91CF911F91D4
:1001C0000895DE2BF8CFCF93DF9390E0FC01E65645
:1001D000FF4F24918A579F4FFC0184918823D1F0CF
:1001E00090E0880F991FFC01EE58FF4FA591B49144
:1001F000FC01E458FF4FC591D491623071F49FB770
:10020000F8943C91822F809583238C93E8812E2B48
:1002100028839FBFDF91CF9108958FB7F894EC9119
:100220002E2B2C938FBFF6CF8E50806480937C0052
:1002300080917A00806480937A0080917A0086FDB4
:10024000FCCF809178009091790008953FB7F894A1
:1002500080911F0190912001A0912101B091220174
:1002600026B5A89B05C02F3F19F00196A11DB11D11
:100270003FBFBA2FA92F982F8827BC01CD01620F4D
:10028000711D811D911D42E0660F771F881F991F08
:100290004A95D1F70895AF92BF92CF92DF92EF9235
:1002A000FF920F931F93CF93DF936C017B018B0120
:1002B000040F151FEB015E01AE18BF08C017D10770
:1002C00059F06991D601ED91FC910190F081E02DFA
:1002D000C6010995892B79F7C501DF91CF911F914F
:1002E0000F91FF90EF90DF90CF90BF90AF90089567
:1002F000FC01538D448D252F30E0842F90E0821B2C
:10030000930B541710F0CF96089501970895FC01B0
:10031000918D828D981761F0A28DAE0FBF2FB11D08
:100320005D968C91928D9F5F9F73928F90E0089560
:100330008FEF9FEF0895FC01918D828D981731F01A
:10034000828DE80FF11D858D90E008958FEF9FEF6E
:100350000895FC01918D228D892F90E0805C9F4F44
:10036000821B91098F739927089583E291E00E947F
:10037000A90121E0892B09F420E0822F089580E073
:1003800090E0892B29F00E94B50181110C940000A6
:100390000895FC01A48DA80FB92FB11DA35ABF4F1A
:1003A0002C91848D90E001968F739927848FA68974
:1003B000B7892C93A089B1898C91837080648C93C8
:1003C000938D848D981306C00288F389E02D808177
:1003D0008F7D80830895EF92FF920F931F93CF93A9
:1003E000DF93EC0181E0888F9B8D8C8D98131AC070
:1003F000E889F989808185FF15C09FB7F894EE8957
:10040000FF896083E889F9898081837080648083B3
:100410009FBF81E090E0DF91CF911F910F91FF90FE
:10042000EF900895F62E0B8D10E00F5F1F4F0F73A6
:100430001127E02E8C8D8E110CC00FB607FCFACF61
:10044000E889F989808185FFF5CFCE010E94C90135
:10045000F1CFEB8DEC0FFD2FF11DE35AFF4FF08232
:100460009FB7F8940B8FEA89FB8980818062CFCF98
:10047000CF93DF93EC01888D8823B9F0AA89BB89DB
:10048000E889F9898C9185FD03C0808186FD0DC0C6
:100490000FB607FCF7CF8C9185FFF2CF808185FFE7
:1004A000EDCFCE010E94C901E9CFDF91CF91089530
:1004B000CF92DF92EF92FF920F931F93CF93DF9330
:1004C00000D0CDB7DEB769834A83880F991F0091AA
:1004D000160210911702000F111FE0ECF1E09F01CE
:1004E000205C31402017310714F41192F8CF298194
:1004F000FC01E054FE4F21838A81808360E080917B
:1005000014020E94B5001016110604F501501109DD
:10051000F801E054FE4FE080D0901202C09010022B
:1005200088E0F82E6E2D661F6627661F8C2D0E94B0
:10053000B500EE0C61E08D2D0E94B50060E08D2DC0
:100540000E94B500FA94F110EDCFDDCF61E080910B
:1005500014020F900F90DF91CF911F910F91FF9098
:10056000EF90DF90CF900C94B500EF92FF921F9325
:10057000CF93DF9397FD1DC0209116023091170293
:1005800082179307B4F4EC0123E0880F991F2A9592
:10059000E1F79C0120533E4F790111E0F7011192E0
:1005A0007F0140E0612FCE010E9458021F5F193089
:1005B000A9F7DF91CF911F91FF90EF9008952091BF
:1005C000160230911702821793079CF46830710568
:1005D00081F0FC0123E0EE0FFF1F2A95E1F7E054C4
:1005E000FE4FE60FF71F2FEF208B6F5F4FEF0C943E
:1005F00058020895FC0101900020E9F73197AF01FE
:10060000481B590BBC0183E291E00C944B018F9283
:100610009F92AF92BF920F931F93CF93DF93CDB76B
:10062000DEB7A1970FB6F894DEBF0FBECDBF19A2FB
:10063000423008F44AE08E010F5D1F4F842E912C4A
:10064000B12CA12CA50194010E943306E62FB9011B
:10065000CA01EA30F4F4E05DD801EE938D01232B5A
:10066000242B252B79F790E080E0109719F0CD012D
:100670000E94FA02A1960FB6F894DEBF0FBECDBF5E
:10068000DF91CF911F910F91BF90AF909F908F906E
:100690000895E95CE1CFCF92DF92EF92FF92CF9382
:1006A000DF936B017C016DE283E291E00E94EB013C
:1006B000EC0166277727CB016C197D098E099F090C
:1006C0004AE00E9407038C0F9D1FDF91CF91FF909E
:1006D000EF90DF90CF900895BC01990F880B990B94
:1006E00097FD0C944B034AE00C9407031F920F9262
:1006F0000FB60F9211242F933F938F939F93AF9335
:10070000BF9380911B0190911C01A0911D01B0919C
:100710001E0130911A0123E0230F2D3758F5019661
:10072000A11DB11D20931A0180931B0190931C0100
:10073000A0931D01B0931E0180911F019091200193
:10074000A0912101B09122010196A11DB11D8093BC
:100750001F0190932001A0932101B0932201BF912A
:10076000AF919F918F913F912F910F900FBE0F905E
:100770001F90189526E8230F0296A11DB11DD2CF18
:100780001F920F920FB60F9211242F933F934F9306
:100790005F936F937F938F939F93AF93BF93EF93E9
:1007A000FF9383E291E00E94C901FF91EF91BF9115
:1007B000AF919F918F917F916F915F914F913F91F9
:1007C0002F910F900FBE0F901F9018951F920F92B0
:1007D0000FB60F9211242F938F939F93EF93FF9354
:1007E000E0913301F09134018081E0913901F09181
:1007F0003A0182FD1BC0908180913C018F5F8F7315
:1008000020913D01821741F0E0913C01F0E0ED5D67
:10081000FE4F958F80933C01FF91EF919F918F91B7
:100820002F910F900FBE0F901F9018958081F4CFDD
:10083000CF93DF93109226011092250188EE93E06A
:10084000A0E0B0E08093270190932801A0932901B4
:10085000B0932A0184E091E09093240180932301D6
:1008600085EC90E09093300180932F0184EC90E030
:10087000909332018093310180EC90E090933401A9
:100880008093330181EC90E09093360180933501A1
:1008900082EC90E0909338018093370186EC90E0F1
:1008A00090933A018093390110923C0110923D01DE
:1008B00010923E0110923F01CCE0D0E0D0931102A3
:1008C000C09310028BE090E0909313028093120289
:1008D0008AE090E0909315028093140284E090E007
:1008E000909317028093160261E08CE00E94E3006F
:1008F00061E0809112020E94E30061E080911402A5
:100900000E94E30061E0809114020E94B500D09340
:100910001102C0931002E0EDF1E080E192E011924B
:100920008E179F07E1F7D0E0C0E08091160290910A
:100930001702C817D9073CF540E06FE0CE010E94CE
:1009400058028091160290911702C817D9072CF40B
:1009500047E06BE0CE010E94580240E069E0CE0122
:100960000E945802CE010E94B50280911602909119
:100970001702C817D9072CF440E06CE0CE010E94A2
:1009800058022196D2CFDF91CF910895789484B503
:10099000826084BD84B5816084BD85B5826085BD7B
:1009A00085B5816085BD80916E00816080936E0009
:1009B00010928100809181008260809381008091FB
:1009C00081008160809381008091800081608093AC
:1009D00080008091B10084608093B1008091B0006C
:1009E00081608093B00080917A00846080937A0067
:1009F00080917A00826080937A0080917A00816091
:100A000080937A0080917A00806880937A001092B7
:100A1000C1001092190110921801C0911801D091D3
:100A20001901C430D1051CF5D7FD18C080911602FC
:100A300090911702C817D9072CF441E06CE0CE0161
:100A40000E9458028091160290911702C817D90788
:100A50002CF448E06AE0CE010E945802CE010E94C8
:100A6000B5022196D0931901C0931801D6CFE09119
:100A70003301F091340182E08083E0912F01F09105
:100A800030011082E0913101F09132018FEC8083CE
:100A900010923B01E0913701F091380186E08083AC
:100AA000E0913501F0913601808180618083E09191
:100AB0003501F0913601808188608083E0913501B5
:100AC000F0913601808180688083E0913501F0915A
:100AD000360180818F7D808362E088E00E94E300A0
:100AE00026EB822E20E0922EC2EAD0E00EE810E043
:100AF00030E0A32E30E0B32EF12CE12C8EE00E94EA
:100B00001401883C91052CF4B70181E090E00E942B
:100B1000DF028EE00E941401813293402CF0B70175
:100B200082E090E00E94DF028FE00E941401883C86
:100B300091052CF4B70190E080E00E94DF028FE085
:100B40000E941401813293402CF0B70183E090E0C1
:100B50000E94DF02FFEFEF1AFF0A28E0E216F1041D
:100B600069F68EE00E9414010E946C0382E191E01C
:100B70000E94FA028FE00E9414010E946C0382E13D
:100B800091E00E94FA02F4018491FE01E490F801E0
:100B9000F49070E060E0FF2099F081110E948C00D9
:100BA000EF2DF0E0EE0FFF1FE859FF4FA591B49134
:100BB0008C91E82291E080E009F490E0692F782F91
:100BC000072E000C880B990B4AE00E94070385E171
:100BD00091E00E94FA020E9426012B013C0184EF61
:100BE000C82EDD24D394E12CF12C0E942601641937
:100BF000750986099709683E734081059105A8F338
:100C0000F1E0CF1AD108E108F10828EE420E23E006
:100C1000521E611C711CC114D104E104F10429F7B6
:100C20001092190110921801E0901801F09019012A
:100C3000F4E0EF16F1045CF4C7010E94B5022FEF57
:100C4000E21AF20AF0921901E0921801EDCFA11414
:100C5000B10409F451CF0E94B501882309F44CCFA7
:100C60000E94000049CFA1E21A2EAA1BBB1BFD0166
:100C70000DC0AA1FBB1FEE1FFF1FA217B307E4077B
:100C8000F50720F0A21BB30BE40BF50B661F771FD3
:100C9000881F991F1A9469F76095709580959095B3
:100CA0009B01AC01BD01CF010895EE0FFF1F059020
:0A0CB000F491E02D0994F894FFCFB1
:100CBA0000000000EB014B0178013802A90187010D
:080CCA009B012020000D0A002F
:00000001FF
