:020000040000FA
:100000000C9462000C948A000C948A000C948A0070
:100010000C948A000C948A000C948A000C948A0038
:100020000C948A000C948A000C948A000C948A0028
:100030000C948A000C948A000C948A000C948A0018
:100040000C9491030C948A000C9401040C94DB032F
:100050000C948A000C948A000C948A000C948A00F8
:100060000C948A000C948A000000000023002600F3
:10007000290000000000240027002A0000000000E2
:10008000250028002B0004040404040404040202D4
:100090000202020203030303030301020408102007
:1000A0004080010204081020010204081020000012
:1000B0000008000201000003040700000000000027
:1000C0000000330411241FBECFEFD8E0DEBFCDBF48
:1000D00011E0A0E0B1E0E0EEFEE002C005900D927C
:1000E000AC31B107D9F722E0ACE1B1E001C01D921B
:1000F000AE31B207E1F710E0C2E6D0E004C02197CC
:10010000FE010E946807C136D107C9F70E94E504C5
:100110000C946E070C940000833081F028F4813039
:1001200099F08230A9F008958730A9F08830C9F09D
:100130008430B1F4809180008F7D03C08091800075
:100140008F7780938000089584B58F7784BD08955C
:1001500084B58F7DFBCF8091B0008F778093B00006
:1001600008958091B0008F7DF9CF1F93CF93DF93D7
:10017000282F30E0F901E255FF4F8491F901E6564E
:10018000FF4FD491F901EA57FF4FC491CC23A9F056
:10019000162F81110E948C00EC2FF0E0EE0FFF1F54
:1001A000E458FF4FA591B4918FB7F894EC911111D9
:1001B00008C0D095DE23DC938FBFDF91CF911F91D4
:1001C0000895DE2BF8CFCF93DF9390E0FC01E65645
:1001D000FF4F24918A579F4FFC0184918823D1F0CF
:1001E00090E0880F991FFC01EE58FF4FA591B49144
:1001F000FC01E458FF4FC591D491623071F49FB770
:10020000F8943C91822F809583238C93E8812E2B48
:1002100028839FBFDF91CF9108958FB7F894EC9119
:100220002E2B2C938FBFF6CF8E3008F08E50877018
:10023000806480937C0080917A00806480937A004F
:1002400080917A0086FDFCCF8091780090917900B2
:1002500008953FB7F8948091230190912401A091D3
:100260002501B091260126B5A89B05C02F3F19F0A6
:100270000196A11DB11D3FBFBA2FA92F982F882726
:10028000BC01CD01620F711D811D911D42E0660F01
:10029000771F881F991F4A95D1F70895AF92BF9293
:1002A000CF92DF92EF92FF920F931F93CF93DF9342
:1002B0006C017B018B01040F151FEB015E01AE1871
:1002C000BF08C017D10759F06991D601ED91FC9193
:1002D0000190F081E02DC6010995892B79F7C501C0
:1002E000DF91CF911F910F91FF90EF90DF90CF9012
:1002F000BF90AF900895FC01538D448D252F30E0C1
:10030000842F90E0821B930B541710F0CF96089522
:1003100001970895FC01918D828D981761F0A28D4F
:10032000AE0FBF2FB11D5D968C91928D9F5F9F7315
:10033000928F90E008958FEF9FEF0895FC01918DCB
:10034000828D981731F0828DE80FF11D858D90E038
:1003500008958FEF9FEF0895FC01918D228D892FD5
:1003600090E0805C9F4F821B91098F7399270895BD
:1003700087E291E00E94AC0121E0892B09F420E0A2
:10038000822F089580E090E0892B29F00E94B80127
:1003900081110C9400000895FC01A48DA80FB92FC1
:1003A000B11DA35ABF4F2C91848D90E001968F739D
:1003B0009927848FA689B7892C93A089B1898C91BC
:1003C000837080648C93938D848D981306C002880B
:1003D000F389E02D80818F7D80830895EF92FF92D5
:1003E0000F931F93CF93DF93EC0181E0888F9B8D58
:1003F0008C8D98131AC0E889F989808185FF15C012
:100400009FB7F894EE89FF896083E889F989808134
:100410008370806480839FBF81E090E0DF91CF9103
:100420001F910F91FF90EF900895F62E0B8D10E025
:100430000F5F1F4F0F731127E02E8C8D8E110CC094
:100440000FB607FCFACFE889F989808185FFF5CFDF
:10045000CE010E94CC01F1CFEB8DEC0FFD2FF11DF1
:10046000E35AFF4FF0829FB7F8940B8FEA89FB891C
:1004700080818062CFCFCF93DF93EC01888D88237A
:10048000B9F0AA89BB89E889F9898C9185FD03C0F7
:10049000808186FD0DC00FB607FCF7CF8C9185FFDC
:1004A000F2CF808185FFEDCFCE010E94CC01E9CF54
:1004B000DF91CF910895CF92DF92EF92FF920F9349
:1004C0001F93CF93DF9300D0CDB7DEB769834A8304
:1004D000880F991F00911C0210911D02000F111F1F
:1004E000E6ECF1E09F01265C31402017310714F45F
:1004F0001192F8CF2981FC01EA53FE4F21838A81B2
:10050000808360E080911A020E94B50010161106E7
:1005100004F501501109F801EA53FE4FE080D09034
:100520001802C090160288E0F82E6E2D661F66270E
:10053000661F8C2D0E94B500EE0C61E08D2D0E948F
:10054000B50060E08D2D0E94B500FA94F110EDCF5A
:10055000DDCF61E080911A020F900F90DF91CF9173
:100560001F910F91FF90EF90DF90CF900C94B5000A
:10057000EF92FF921F93CF93DF9397FD1DC02091C1
:100580001C0230911D0282179307B4F4EC0123E0A2
:10059000880F991F2A95E1F79C012A523E4F790155
:1005A00011E0F70111927F0140E0612FCE010E941E
:1005B0005B021F5F1930A9F7DF91CF911F91FF9068
:1005C000EF90089520911C0230911D02821793072D
:1005D0009CF46830710581F0FC0123E0EE0FFF1FF1
:1005E0002A95E1F7EA53FE4FE60FF71F2FEF208B16
:1005F0006F5F4FEF0C945B020895FC0101900020A7
:10060000E9F73197AF01481B590BBC0187E291E034
:100610000C944E018F929F92AF92BF920F931F93B3
:10062000CF93DF93CDB7DEB7A1970FB6F894DEBFB7
:100630000FBECDBF19A2423008F44AE08E010F5D13
:100640001F4F842E912CB12CA12CA50194010E9446
:100650003707E62FB901CA01EA30F4F4E05DD801AA
:10066000EE938D01232B242B252B79F790E080E04E
:10067000109719F0CD010E94FD02A1960FB6F894D3
:10068000DEBF0FBECDBFDF91CF911F910F91BF9005
:10069000AF909F908F900895E95CE1CFCF92DF9269
:1006A000EF92FF92CF93DF936B017C016DE287E2C3
:1006B00091E00E94EE01EC0166277727CB016C19CF
:1006C0007D098E099F094AE00E940A038C0F9D1F35
:1006D000DF91CF91FF90EF90DF90CF900895BC0114
:1006E000990F880B990B97FD0C944E034AE00C94DC
:1006F0000A03CF93DF93BC01990F880B990B97FFE7
:100700000CC00E944E03EC0186E191E00E94FD02C4
:100710008C0F9D1FDF91CF9108954AE00E940A033C
:10072000F2CF1F920F920FB60F9211242F933F9387
:100730008F939F93AF93BF9380911F01909120015E
:10074000A0912101B091220130911E0123E0230FDD
:100750002D3758F50196A11DB11D20931E018093E0
:100760001F0190932001A0932101B0932201809159
:10077000230190912401A0912501B09126010196B9
:10078000A11DB11D8093230190932401A093250105
:10079000B0932601BF91AF919F918F913F912F917F
:1007A0000F900FBE0F901F90189526E8230F02960A
:1007B000A11DB11DD2CF1F920F920FB60F9211241F
:1007C0002F933F934F935F936F937F938F939F9359
:1007D000AF93BF93EF93FF9387E291E00E94CC0128
:1007E000FF91EF91BF91AF919F918F917F916F9109
:1007F0005F914F913F912F910F900FBE0F901F90DF
:1008000018951F920F920FB60F9211242F938F936A
:100810009F93EF93FF93E0913701F091380180812E
:10082000E0913D01F0913E0182FD1BC090818091DD
:1008300040018F5F8F7320914101821741F0E09159
:100840004001F0E0E95DFE4F958F80934001FF91FC
:10085000EF919F918F912F910F900FBE0F901F904E
:1008600018958081F4CFCF93DF9310922A011092D4
:10087000290188EE93E0A0E0B0E080932B019093F3
:100880002C01A0932D01B0932E0188E091E090936C
:1008900028018093270185EC90E0909334018093A8
:1008A000330184EC90E0909336018093350180EC25
:1008B00090E0909338018093370181EC90E0909321
:1008C0003A018093390182EC90E090933C0180934F
:1008D0003B0186EC90E090933E0180933D011092A5
:1008E0004001109241011092420110924301CCE06C
:1008F000D0E0D0931702C09316028BE090E0909363
:100900001902809318028AE090E090931B02809372
:100910001A0284E090E090931D0280931C0261E033
:100920008CE00E94E30061E0809118020E94E300E5
:1009300061E080911A020E94E30061E080911A0256
:100940000E94B500D0931702C0931602E6EDF1E0C5
:1009500086E192E011928E179F07E1F7D0E0C0E0A8
:1009600080911C0290911D02C817D9073CF540E008
:100970006FE0CE010E945B0280911C0290911D02EB
:10098000C817D9072CF447E06BE0CE010E945B0248
:1009900040E069E0CE010E945B02CE010E94B802F5
:1009A00080911C0290911D02C817D9072CF440E0D9
:1009B0006CE0CE010E945B022196D2CF9093C501DC
:1009C0008093C401DF91CF910895789484B58260BB
:1009D00084BD84B5816084BD85B5826085BD85B5E3
:1009E000816085BD80916E00816080936E00109261
:1009F00081008091810082608093810080918100DC
:100A0000816080938100809180008160809380006C
:100A10008091B10084608093B1008091B0008160CA
:100A20008093B00080917A00846080937A008091F6
:100A30007A00826080937A0080917A00816080934E
:100A40007A0080917A00806880937A001092C100C9
:100A500010921D0110921C01C0911C01D0911D012A
:100A6000C430D1051CF5D7FD18C080911C029091AF
:100A70001D02C817D9072CF441E06CE0CE010E949A
:100A80005B0280911C0290911D02C817D9072CF4BB
:100A900048E06AE0CE010E945B02CE010E94B802EB
:100AA0002196D0931D01C0931C01D6CFE091370150
:100AB000F091380182E08083E0913301F0913401BC
:100AC0001082E0913501F09136018FEC8083109215
:100AD0003F01E0913B01F0913C0186E08083E09191
:100AE0003901F0913A01808180618083E091390180
:100AF000F0913A01808188608083E0913901F09122
:100B00003A01808180688083E0913901F0913A0157
:100B100080818F7D808362E088E00E94E30080E036
:100B20000E941401BC01990F880B990B6115710586
:100B30008105910511F00E94FC0626EB822E20E033
:100B4000922EC2EAD0E00EE810E030E0A32E30E0B2
:100B5000B32EF12CE12C8EE00E941401883C91050B
:100B60002CF4B70181E090E00E94E2028EE00E9446
:100B70001401813293402CF0B70182E090E00E9492
:100B8000E2028FE00E941401883C91052CF4B70129
:100B900090E080E00E94E2028FE00E941401813226
:100BA00093402CF0B70183E090E00E94E202FFEF57
:100BB000EF1AFF0A28E0E216F10469F68EE00E94BF
:100BC00014010E946F0389E191E00E94FD028FE011
:100BD0000E9414010E946F0389E191E00E94FD02CE
:100BE000F4018491FE01E490F801F490FF2009F4EF
:100BF00059C081110E948C00EF2DF0E0EE0FFF1F15
:100C0000E859FF4FA591B4918C91E82281E090E0E2
:100C100009F480E00E94790389E191E00E94FD02DD
:100C20008091C4019091C5010E9479030E9429011D
:100C30002B013C0184EFC82EDD24D394E12CF12C50
:100C40000E9429016419750986099709683E734055
:100C500081059105A8F3F1E0CF1AD108E108F10868
:100C600028EE420E23E0521E611C711CC114D104F7
:100C7000E104F10429F710921D0110921C01E0908B
:100C80001C01F0901D01F4E0EF16F10474F4C701AB
:100C90000E94B8022FEFE21AF20AF0921D01E092D0
:100CA0001C01EDCF80E090E0B5CFA114B10409F4B0
:100CB00050CF0E94B801882309F44BCF0E94000056
:100CC00048CF8F929F92AF92BF92CF92DF92EF92D6
:100CD000FF92CF93DF93EC01688179818A819B81B8
:100CE000611571058105910521F464E279ED8BE5CB
:100CF00097E02DE133EF41E050E00E940507490104
:100D00005A019B01AC01A7EAB1E40E9424076B01E0
:100D10007C01ACEEB4EFA50194010E943207C60E2F
:100D2000D71EE81EF91EF7FE06C081E0C81AD108DA
:100D3000E10880E8F80AC882D982EA82FB82C7010A
:100D4000B6019F77DF91CF91FF90EF90DF90CF902A
:100D5000BF90AF909F908F9008958F929F92AF9287
:100D6000BF92CF92DF92EF92FF926091000170915B
:100D700001018091020190910301611571058105C6
:100D8000910521F464E279ED8BE597E02DE133EFF5
:100D900041E050E00E94050749015A019B01AC0166
:100DA000A7EAB1E40E9424076B017C01ACEEB4EF2A
:100DB000A50194010E943207C60ED71EE81EF91E37
:100DC000F7FE06C081E0C81AD108E10880E8F80AF9
:100DD000C0920001D0920101E0920201F092030161
:100DE000C701B6019F77FF90EF90DF90CF90BF9043
:100DF000AF909F908F9008956093000170930101D0
:100E000080930201909303010895052E97FB1EF431
:100E100000940E941C0757FD07D00E94370707FC6B
:100E200003D04EF40C941C075095409530952195B5
:100E30003F4F4F4F5F4F0895909580957095619506
:100E40007F4F8F4F9F4F08950E945907A59F900D88
:100E5000B49F900DA49F800D911D11240895B7FF9C
:100E60000C9424070E942407821B930B0895A1E28F
:100E70001A2EAA1BBB1BFD010DC0AA1FBB1FEE1F14
:100E8000FF1FA217B307E407F50720F0A21BB30B5F
:100E9000E40BF50B661F771F881F991F1A9469F7DB
:100EA00060957095809590959B01AC01BD01CF0137
:100EB0000895A29FB001B39FC001A39F700D811D33
:100EC0001124911DB29F700D811D1124911D089553
:100ED000EE0FFF1F0590F491E02D0994F894FFCFD9
:100EE0000100000000000000EE014E017B013B020A
:0C0EF000AC018A019E010D0A00202000C8
:107E0000112484B714BE81FFF0D085E080938100F7
:107E100082E08093C00088E18093C10086E0809377
:107E2000C20080E18093C4008EE0C9D0259A86E02C
:107E300020E33CEF91E0309385002093840096BBD3
:107E4000B09BFECF1D9AA8958150A9F7CC24DD24C4
:107E500088248394B5E0AB2EA1E19A2EF3E0BF2EE7
:107E6000A2D0813461F49FD0082FAFD0023811F036
:107E7000013811F484E001C083E08DD089C08234E0
:107E800011F484E103C0853419F485E0A6D080C0E4
:107E9000853579F488D0E82EFF2485D0082F10E0AE
:107EA000102F00270E291F29000F111F8ED06801E7
:107EB0006FC0863521F484E090D080E0DECF843638
:107EC00009F040C070D06FD0082F6DD080E0C81688
:107ED00080E7D80618F4F601B7BEE895C0E0D1E017
:107EE00062D089930C17E1F7F0E0CF16F0E7DF06D8
:107EF00018F0F601B7BEE89568D007B600FCFDCFD4
:107F0000A601A0E0B1E02C9130E011968C91119780
:107F100090E0982F8827822B932B1296FA010C0160
:107F200087BEE89511244E5F5F4FF1E0A038BF0790
:107F300051F7F601A7BEE89507B600FCFDCF97BE46
:107F4000E89526C08437B1F42ED02DD0F82E2BD052
:107F50003CD0F601EF2C8F010F5F1F4F84911BD097
:107F6000EA94F801C1F70894C11CD11CFA94CF0C13
:107F7000D11C0EC0853739F428D08EE10CD085E9AC
:107F80000AD08FE07ACF813511F488E018D01DD067
:107F900080E101D065CF982F8091C00085FFFCCF94
:107FA0009093C60008958091C00087FFFCCF809118
:107FB000C00084FD01C0A8958091C6000895E0E648
:107FC000F0E098E1908380830895EDDF803219F02E
:107FD00088E0F5DFFFCF84E1DECF1F93182FE3DFCA
:107FE0001150E9F7F2DF1F91089580E0E8DFEE27F6
:047FF000FF270994CA
:027FFE00040479
:00000001FF
