:100000000C9462000C948A000C948A000C948A0070
:100010000C948A000C948A000C948A000C948A0038
:100020000C948A000C948A000C948A000C948A0028
:100030000C948A000C948A000C948A000C948A0018
:100040000C9480030C948A000C94F0030C94CA0363
:100050000C948A000C948A000C948A000C948A00F8
:100060000C948A000C948A000000000023002600F3
:10007000290000000000240027002A0000000000E2
:10008000250028002B0004040404040404040202D4
:100090000202020203030303030301020408102007
:1000A0004080010204081020010204081020000012
:1000B0000008000201000003040700000000000027
:1000C0000000220411241FBECFEFD8E0DEBFCDBF59
:1000D00011E0A0E0B1E0E6E7FDE002C005900D927E
:1000E000A833B107D9F722E0A8E3B1E001C01D921F
:1000F000A833B207E1F710E0C2E6D0E004C02197D0
:10010000FE010E94B306C136D107C9F70E94D00490
:100110000C94B9060C940000833081F028F48130EF
:1001200099F08230A9F008958730A9F08830C9F09D
:100130008430B1F4809180008F7D03C08091800075
:100140008F7780938000089584B58F7784BD08955C
:1001500084B58F7DFBCF8091B0008F778093B00006
:1001600008958091B0008F7DF9CF1F93CF93DF93D7
:10017000282F30E0F901E255FF4F8491F901E6564E
:10018000FF4FD491F901EA57FF4FC491CC23A9F056
:10019000162F81110E948C00EC2FF0E0EE0FFF1F54
:1001A000E458FF4FA591B4918FB7F894EC911111D9
:1001B00008C0D095DE23DC938FBFDF91CF911F91D4
:1001C0000895DE2BF8CFCF93DF9390E0FC01E65645
:1001D000FF4F24918A579F4FFC0184918823D1F0CF
:1001E00090E0880F991FFC01EE58FF4FA591B49144
:1001F000FC01E458FF4FC591D491623071F49FB770
:10020000F8943C91822F809583238C93E8812E2B48
:1002100028839FBFDF91CF9108958FB7F894EC9119
:100220002E2B2C938FBFF6CF8E50806480937C0052
:1002300080917A00806480937A0080917A0086FDB4
:10024000FCCF809178009091790008953FB7F894A1
:1002500080913F0190914001A0914101B0914201F4
:1002600026B5A89B05C02F3F19F00196A11DB11D11
:100270003FBFBA2FA92F982F8827BC01CD01620F4D
:10028000711D811D911D42E0660F771F881F991F08
:100290004A95D1F70895AF92BF92CF92DF92EF9235
:1002A000FF920F931F93CF93DF936C017B018B0120
:1002B000040F151FEB015E01AE18BF08C017D10770
:1002C00059F06991D601ED91FC910190F081E02DFA
:1002D000C6010995892B79F7C501DF91CF911F914F
:1002E0000F91FF90EF90DF90CF90BF90AF90089567
:1002F000FC01538D448D252F30E0842F90E0821B2C
:10030000930B541710F0CF96089501970895FC01B0
:10031000918D828D981761F0A28DAE0FBF2FB11D08
:100320005D968C91928D9F5F9F73928F90E0089560
:100330008FEF9FEF0895FC01918D828D981731F01A
:10034000828DE80FF11D858D90E008958FEF9FEF6E
:100350000895FC01918D228D892F90E0805C9F4F44
:10036000821B91098F739927089583E491E00E947D
:10037000A90121E0892B09F420E0822F089580E073
:1003800090E0892B29F00E94B50181110C940000A6
:100390000895FC01A48DA80FB92FB11DA35ABF4F1A
:1003A0002C91848D90E001968F739927848FA68974
:1003B000B7892C93A089B1898C91837080648C93C8
:1003C000938D848D981306C00288F389E02D808177
:1003D0008F7D80830895EF92FF920F931F93CF93A9
:1003E000DF93EC0181E0888F9B8D8C8D98131AC070
:1003F000E889F989808185FF15C09FB7F894EE8957
:10040000FF896083E889F9898081837080648083B3
:100410009FBF81E090E0DF91CF911F910F91FF90FE
:10042000EF900895F62E0B8D10E00F5F1F4F0F73A6
:100430001127E02E8C8D8E110CC00FB607FCFACF61
:10044000E889F989808185FFF5CFCE010E94C90135
:10045000F1CFEB8DEC0FFD2FF11DE35AFF4FF08232
:100460009FB7F8940B8FEA89FB8980818062CFCF98
:10047000CF93DF93EC01888D8823B9F0AA89BB89DB
:10048000E889F9898C9185FD03C0808186FD0DC0C6
:100490000FB607FCF7CF8C9185FFF2CF808185FFE7
:1004A000EDCFCE010E94C901E9CFDF91CF91089530
:1004B000CF92DF92EF92FF920F931F93CF93DF9330
:1004C00000D0CDB7DEB769834A83880F991F0091AA
:1004D000360210913702000F111FE0EEF1E09F018C
:1004E000205E31402017310714F41192F8CF298192
:1004F000FC01E052FE4F21838A81808360E080917D
:1005000034020E94B5001016110604F501501109BD
:10051000F801E052FE4FE080D0903202C0903002ED
:1005200088E0F82E6E2D661F6627661F8C2D0E94B0
:10053000B500EE0C61E08D2D0E94B50060E08D2DC0
:100540000E94B500FA94F110EDCFDDCF61E080910B
:1005500034020F900F90DF91CF911F910F91FF9078
:10056000EF90DF90CF900C94B500EF92FF921F9325
:10057000CF93DF9397FD1DC0209136023091370253
:1005800082179307B4F4EC0123E0880F991F2A9592
:10059000E1F79C0120513E4F790111E0F7011192E2
:1005A0007F0140E0612FCE010E9458021F5F193089
:1005B000A9F7DF91CF911F91FF90EF9008952091BF
:1005C000360230913702821793078CF46830710538
:1005D00071F0FC0123E0EE0FFF1F2A95E1F7E052D6
:1005E000FE4FE60FF71F408B6F5F0C945802089583
:1005F000FC0101900020E9F73197AF01481B590B2E
:10060000BC0183E491E00C944B018F929F92AF92D6
:10061000BF92CF92DF92EF92FF920F931F93CF93EF
:10062000DF93CDB7DEB7A1970FB6F894DEBF0FBE4C
:10063000CDBF6B017C01F7FE41C06DE283E491E028
:100640000E94EB018C0122273327A9012C193D09B7
:100650004E095F0919A2CE0181967C019AE0892E8C
:10066000912CA12CB12CCA01B901A50194010E94C1
:100670009106605DF70162937F0121153105410507
:10068000510589F790E080E0309719F0CF010E9482
:10069000F802800F911FA1960FB6F894DEBF0FBE2F
:1006A000CDBFDF91CF911F910F91FF90EF90DF9021
:1006B000CF90BF90AF909F908F900895AC019B0119
:1006C00019A28E010F5D1F4F8AE0C82ED12CE12C9C
:1006D000F12CCA01B901A70196010E949106605D43
:1006E000F80162938F01211531054105510589F704
:1006F00090E080E0309779F2CF010E94F802CBCFF2
:100700001F920F920FB60F9211242F933F938F9346
:100710009F93AF93BF9380913B0190913C01A09137
:100720003D01B0913E0130913A0123E0230F2D3776
:1007300058F50196A11DB11D20933A0180933B010C
:1007400090933C01A0933D01B0933E0180913F0105
:1007500090914001A0914101B09142010196A11DEB
:10076000B11D80933F0190934001A0934101B0934C
:100770004201BF91AF919F918F913F912F910F9027
:100780000FBE0F901F90189526E8230F0296A11D0B
:10079000B11DD2CF1F920F920FB60F9211242F933B
:1007A0003F934F935F936F937F938F939F93AF93F9
:1007B000BF93EF93FF9383E491E00E94C901FF91FF
:1007C000EF91BF91AF919F918F917F916F915F91C9
:1007D0004F913F912F910F900FBE0F901F90189542
:1007E0001F920F920FB60F9211242F938F939F9306
:1007F000EF93FF93E0915301F09154018081E091D8
:100800005901F0915A0182FD1BC0908180915C01D9
:100810008F5F8F7320915D01821741F0E0915C0141
:10082000F0E0ED5BFE4F958F80935C01FF91EF91BF
:100830009F918F912F910F900FBE0F901F90189541
:100840008081F4CFCF93DF9310924601109245013F
:1008500088EE93E0A0E0B0E08093470190934801D8
:10086000A0934901B0934A0184E291E0909344013E
:100870008093430185EC90E09093500180934F0169
:1008800084EC90E0909352018093510180EC90E0D1
:10089000909354018093530181EC90E09093560122
:1008A0008093550182EC90E090935801809357011A
:1008B00086EC90E090935A018093590110925C016C
:1008C00010925D0110925E0110925F01CCE0D0E0C9
:1008D000D0933102C09330028BE090E090933302CA
:1008E000809332028AE090E0909335028093340244
:1008F00084E090E0909337028093360261E08CE0D0
:100900000E94E30061E0809132020E94E30061E016
:10091000809134020E94E30061E0809134020E94E1
:10092000B500D0933102C0933002E0EFF1E080E3F4
:1009300092E011928E179F07E1F7D0E0C0E080911E
:10094000360290913702C817D9073CF540E06FE0B6
:10095000CE010E9458028091360290913702C8174A
:10096000D9072CF447E06BE0CE010E94580240E02A
:1009700069E0CE010E945802CE010E94B50280912A
:10098000360290913702C817D9072CF440E06CE08A
:10099000CE010E9458022196D2CFDF91CF910895C7
:1009A000CF93DF93CDB7DEB7A0970FB6F894DEBF35
:1009B0000FBECDBF789484B5826084BD84B581605C
:1009C00084BD85B5826085BD85B5816085BD80911A
:1009D0006E00816080936E00109281008091810092
:1009E000826080938100809181008160809381008A
:1009F000809180008160809380008091B10084604C
:100A00008093B1008091B00081608093B0008091AC
:100A10007A00846080937A0080917A00826080936B
:100A20007A0080917A00816080937A0080917A00C8
:100A3000806880937A001092C10010923901109260
:100A4000380100913801109139010430110524F565
:100A500017FD18C0809136029091370208171907C8
:100A60002CF441E06CE0C8010E94580280913602EB
:100A700090913702081719072CF448E06AE0C80182
:100A80000E945802C8010E94B5020F5F1F4F1093C9
:100A9000390100933801D5CFE0915301F091540111
:100AA00082E08083E0914F01F09150011082E0914B
:100AB0005101F09152018FEC808310925B01E09123
:100AC0005701F091580186E08083E0915501F09143
:100AD0005601808180618083E0915501F09156013B
:100AE000808188608083E0915501F091560180817A
:100AF00080688083E0915501F091560180818F7D5F
:100B0000808362E088E00E94E30036EB232E30E031
:100B1000332E02EA10E04EE8E42E40E0F42E20E00E
:100B2000C22E20E0D22E88E0E0E0F1E0DE0159960E
:100B300001900D928A95E1F788E0E8E0F1E0DE01AE
:100B4000519601900D928A95E1F788E0E0E1F1E09D
:100B5000DE01199601900D928A95E1F788E0E8E1AF
:100B6000F1E0DE01119601900D928A95E1F7B12C2A
:100B7000A12C8FE00E941401883C910564F4E9E106
:100B8000F0E0EC0FFD1FEA0DFB1D4081B50183E095
:100B900090E00E94DF028FE00E94140181329340B6
:100BA00064F0E1E1F0E0EC0FFD1FEA0DFB1D408178
:100BB000B50182E090E00E94DF028EE00E94140105
:100BC000883C910564F4E9E0F0E0EC0FFD1FEA0DCC
:100BD000FB1D4081B50181E090E00E94DF028EE0C4
:100BE0000E9414018132934064F0E1E0F0E0EC0FE8
:100BF000FD1FEA0DFB1D4081B50190E080E00E94E1
:100C0000DF02FFEFAF1ABF0A28E0A216B10409F015
:100C1000B0CF0E9426012B013C0192E3892E912C3A
:100C2000A12CB12C0E942601641975098609970927
:100C3000683E734081059105A8F381E0881A910808
:100C4000A108B108E8EE4E0EE3E05E1E611C711CC7
:100C500081149104A104B10429F710923901109272
:100C60003801A0903801B090390124E0A216B104F7
:100C70005CF4C5010E94B5028FEFA81AB80AB092C1
:100C80003901A0923801EDCF8FE00E941401BC0120
:100C9000990F880B990B0E94050382E391E00E9453
:100CA000F8028EE00E941401BC01990F880B990B89
:100CB0000E94050382E391E00E94F802F101849111
:100CC000F801B490F701A49070E060E0AA2099F0D8
:100CD00081110E948C00EA2DF0E0EE0FFF1FE85911
:100CE000FF4FA591B4918C91B82291E080E009F476
:100CF00090E0692F782F072E000C880B990B0E942B
:100D0000050385E391E00E94F802C114D10409F4BF
:100D10000ACF0E94B501882309F405CF0E94000084
:100D2000FECEA1E21A2EAA1BBB1BFD010DC0AA1FFD
:100D3000BB1FEE1FFF1FA217B307E407F50720F044
:100D4000A21BB30BE40BF50B661F771F881F991FBF
:100D50001A9469F760957095809590959B01AC0108
:100D6000BD01CF010895EE0FFF1F0590F491E02D16
:060D70000994F894FFCF86
:100D76000505F59795F505053C203C203C007E00D1
:100D86007A0A7A427A003E020008142241007F0065
:100D960000000000EB014B0178013802A901870130
:080DA6009B012020000D0A0052
:00000001FF
